:1000000000308A00392900000A108A100A1182077C
:1000100028340C34013406340A108A100A1182077D
:1000200048346F342034743465346E3400342330F3
:1000300084008313000803192B280130F800F7010E
:10004000F70B2028F80B1F284A30F700F70B26285B
:100050002928800B1D2800342A183028081231283E
:100060000816AA1835288812362888162A193A2818
:1000700008133B280817AA193F2888134028881717
:1000800000000815432808110034AB010030081A9D
:100090000130AB040030881A0130F7000310F70D6F
:1000A0007708AB040030081B0130F700F70DF70D9F
:1000B000FC30F7057708AB040030881B0130F700EF
:1000C000F70DF70DF70DF830F7057708AB042B089F
:1000D000F8000034081083160816881608178817C9
:1000E0008312881400000815000045207808AA0033
:1000F000081100000815000045207808A900081123
:100100008316081288120813881383122A0EF70028
:10011000F030F70577082904F8007808A900A91B32
:100120006B28A708031D96280810972808140000BC
:10013000881000000811280EA9000F30A905290811
:10014000AA002C2028080F39A900AA002C2000346E
:1001500083160812881208138813081108108810D3
:1001600083120810881008110F30A30017200130E7
:10017000A1002108033C031CC5280330AA002C2041
:100180000530A3001720A10AB9280230AA002C20AC
:10019000A1012108033C031CD62821080420A20049
:1001A000A7012208A8006A20A10AC9288A110A12F8
:1001B0006129240BDD28A501F1282408023C031D38
:1001C000E4284030A500F1282408033C031DEB2857
:1001D0001430A500F1282408043C031DF1285430F4
:1001E000A50001302302A50725088038A600A70135
:1001F0002608A8006A20003422080C3A03190729AF
:10020000063A03190F29023A031915291A29A701D9
:100210000130A8006A200230A300172020290130F5
:10022000A3000230A400D9202029A7011030A80083
:100230006A2020290130A7002208A8006A2020296E
:100240000034851D2129113086000230A100FA30CA
:10025000A3001720A10B272985192C29860102301C
:10026000A100FA30A3001720A10B31298A110A122C
:100270008229840183131F30830583160317871196
:100280000C3003139900E2309800D03083129800AC
:10029000831603170908C039890003131F129F1220
:1002A000003003178800831287018801890100301C
:1002B000831603138600880011308500831286019F
:1002C000A8280430A3000130A400D920A1012108EE
:1002D0000C20A10AF700A200FC2006302102031D19
:1002E00067290530A3000230A400D9204C30A200B9
:1002F000FC204F30A200FC205030A200FC208519C9
:08030000822921297F296300F5
:04400E00F22CFF3F52
:00000001FF
;PIC16F887
